:10000000282D0010510D0000B10D0000B10D0000B1
:10001000B10D0000B10D0000B10D000000000000A6
:10002000000000000000000000000000611100005E
:10003000B10D000000000000E91200002D130000C7
:10004000B10D0000B10D0000B10D0000B10D0000B8
:10005000B10D0000B10D0000B10D0000B10D0000A8
:10006000B10D0000B10D0000B10D0000B10D000098
:10007000B10D0000B10D0000B10D0000B10D000088
:10008000B10D0000B10D0000B10D0000B10D000078
:10009000B10D0000B10D0000B10D0000B10D000068
:1000A000B10D0000B10D0000B10D0000B10D000058
:1000B000B10D0000B10D0000B10D0000B10D000048
:1000C000B10D0000B10D0000B10D000080B400AF13
:1000D0004E4B2022C3F8A0214C4BD3F8A03103F0A3
:1000E0002003002B07D000BF484BD3F8A03103F00A
:1000F0004003002BF8D0454B0322C3F80421434BA7
:100100000022C3F8A821414B0022C3F8AC213F4B89
:100110000122C3F80C213D4B3D4AC3F884203B4BE0
:10012000AA22C3F88C20394B5522C3F88C20374BB8
:100130000122C3F88020354BAA22C3F88C20334B10
:100140005522C3F88C2000BF304BD3F8883003F021
:100150008063002BF8D02D4B0322C3F880202B4B5B
:10016000AA22C3F88C20294B5522C3F88C2000BF4B
:10017000264BD3F8883003F04073002BF8D0234B84
:100180002322C3F8A420214BAA22C3F8AC201F4B82
:100190005522C3F8AC201D4B0122C3F8A0201B4BF5
:1001A000AA22C3F8AC20194B5522C3F8AC2000BFDB
:1001B000164BD3F8A83003F48063002BF8D0134B10
:1001C0000322C3F8A020114BAA22C3F8AC200F4B86
:1001D0005522C3F8AC2000BF0C4BD3F8A83003F471
:1001E0004073002BF8D0094B0A4AC3F8C420074BD0
:1001F0000022C3F8C821054B43F23A021A60064BAD
:1002000000229A60BD465DF8047B704700C00F4035
:1002100063000500DE87280400ED00E080B582B0B1
:1002200000AFFFF753FF0220FF21012200F0E6F8A4
:1002300002233B700A237B700023FB700023BB70FA
:100240003B46184600F076FE0B237B703B46184673
:1002500000F070FE0C237B703B46184600F06AFEEF
:100260000D237B703B46184600F064FE01233B7073
:100270001D237B703B46184600F05CFE1C237B7000
:100280003B46184600F056FE1B237B703B46184643
:1002900000F050FE0837BD4680BD00BF80B584B079
:1002A00004AFFFF7BBFF012300930023019300235A
:1002B0000293002303930B480B49F022002300F024
:1002C000FFF80223009300230193002302930023ED
:1002D000039306480649F022002300F0F1F800F0ED
:1002E000D1F9FEE7F50200006816000029030000BE
:1002F0007016000080B582B000AF7860022000F078
:10030000C9F8034603F002035B08002B04D1022066
:10031000022100F097F803E00220022100F0A6F885
:10032000FA2000F07DF9E9E780B582B000AF78608F
:10033000022000F0AFF8034603F010031B09002B66
:1003400004D10220102100F07DF803E002201021EA
:1003500000F08CF8FA2000F063F9E9E780B400AF10
:10036000FEE700BF80B483B000AF78603960FEE77D
:1003700080B400AFBD465DF8047B704780B400AF29
:10038000BD465DF8047B704780B485B000AF03467E
:10039000FB710023FB60FB79042B1CD801A252F8EF
:1003A00023F000BFB9030000BF030000C503000035
:1003B000CB030000D10300000B4BFB600CE00B4BA8
:1003C000FB6009E00A4BFB6006E00A4BFB6003E0C0
:1003D000094BFB6000E000BFFB6818461437BD46C0
:1003E0005DF8047B704700BF00C0092020C00920D1
:1003F00040C0092060C0092080C0092080B584B0B9
:1004000000AF396013460246FA71BB71FB7918469A
:10041000FFF7BAFFF860FB68002B10D0BB79002B08
:1004200006D0FB681A683B681A43FB681A6006E04E
:10043000FB681A683B68DB431A40FB681A60103798
:10044000BD4680BD80B584B000AF03463960FB7106
:10045000FB791846FFF798FFF860FB68002B02D085
:10046000FB683A689A611037BD4680BD80B584B09C
:1004700000AF03463960FB71FB791846FFF784FF34
:10048000F860FB68002B02D0FB683A68DA6110372D
:10049000BD4680BD80B584B000AF0346FB71FB79DB
:1004A0001846FFF771FFF860FB68002B02D0FB686D
:1004B0005B6900E0002318461037BD4680BD00BFD1
:1004C00080B58AB002AFF860B9603B601346FB802C
:1004D000FB68002B02D100F0F9FEFEE7BB6A042B9B
:1004E00002D900F0F3FEFEE7FB881846396B00F0F6
:1004F000C9FBB861BB69002B6ED0BB691A6BFB8866
:1005000003F18043013B9B0013447B617B6923F033
:1005100007037B617B6903F00703002B02D000F027
:10052000D5FEFEE7FB880093B869B968BA6A7B6BB1
:1005300000F0B2FA7869F9683A6800F0D5FD024631
:10054000BB691A60FB6A002B02D0FB6ABA691A60A9
:1005500000F094FE2C4B1B685A1C2B4B1A602B4B43
:100560001B68002B09D1294BBA691A60264B1B68FE
:10057000012B0FD100F0D8FA0CE0254B1B68002BA3
:1005800008D1224B1B68DA6ABB6A9A4202D81F4B19
:10059000BA691A601F4B1B685A1C1E4B1A60BB6954
:1005A000DA6A1D4B1B689A4203D9BB69DA6A1A4B97
:1005B0001A60BB69DA6A13469B0013449B00174A12
:1005C0001A44BB6904331046194600F007FD0123A5
:1005D000FB6100F063FE02E04FF0FF33FB61FB695B
:1005E000012B0BD10A4B1B68002B07D0074B1B6854
:1005F000DA6ABB6A9A4201D200F030FEFB69184603
:100600002037BD4680BD00BFE8000010100000107C
:10061000F400001004010010F0000010140000109D
:1006200080B584B000AF78600023FB607B68002B4E
:1006300019D0114B1B68002B02D000F047FEFEE7DB
:1006400000F052F80D4B1A687B681344BB600C4BEA
:100650001B680433184600F01DFDB86800F0DCFA92
:1006600000F050F8F860FB68002B01D100F0F6FDB7
:100670001037BD4680BD00BF08010010EC0000101F
:100680001000001080B586B004AF00230093002353
:10069000019300230293002303930F480F49642220
:1006A0000023FFF70DFF78607B68012B0AD100F073
:1006B0000DFE0B4B01221A600A4B00221A6000F05B
:1006C0006FFD05E07B68002B02D100F0FFFDFEE727
:1006D0000837BD4680BD00BF850A000078160000BF
:1006E000F4000010EC00001080B400AF044B1B6855
:1006F0005A1C034B1A60BD465DF8047B704700BF6F
:100700000801001080B582B000AF00237B60384B39
:100710001B68002B02D100F0D9FDFEE700F0AEFD12
:10072000334B1B685A1E324B1A60314B1B68002B2F
:1007300056D1304B1B68002B52D02FE02E4BDB687C
:10074000DB683B603B681833184600F0A3FC3B684D
:100750000433184600F09EFC3B68DA6A274B1B689E
:100760009A4203D93B68DA6A244B1A603B68DA6A1A
:1007700013469B0013449B00214A1A443B680433F0
:100780001046194600F02AFC3B68DA6A1D4B1B68CC
:10079000DB6A9A4202D31C4B01221A60164B1B687B
:1007A000002BCBD1194B1B68002B11D00CE000F0B3
:1007B0002FF80346002B02D0134B01221A60134B73
:1007C0001B685A1E114B1A60104B1B68002BEED190
:1007D0000D4B1B68012B03D101237B6000F03EFD14
:1007E00000F05CFD7B6818460837BD4680BD00BF41
:1007F00008010010E8000010A8000010F000001030
:100800001400001010000010FC000010F800001090
:1008100080B586B000AF00237B61524B1B68002B74
:1008200040F08D80504B1B685A1C4F4B1A604E4B4A
:100830001B683B613B69002B18D14C4B1B681B6844
:10084000002B02D000F042FDFEE7484B1B68FB6026
:10085000474B1A68454B1A60454BFA681A60454B7E
:100860001B685A1C434B1A6000F04EFA424B1B683F
:100870003A699A424ED33D4B1B681B68002B01D14D
:10088000012300E00023002B04D03B4B4FF0FF324C
:100890001A603FE0354B1B68DB68DB68BB60BB68F8
:1008A0005B687B603A697B689A4203D2324B7A6814
:1008B0001A602FE0BB680433184600F0EBFBBB68FE
:1008C0009B6A002B04D0BB681833184600F0E2FB8B
:1008D000BB68DA6A294B1B689A4203D9BB68DA6A9B
:1008E000264B1A60BB68DA6A13469B0013449B00D0
:1008F000234A1A44BB6804331046194600F06EFBC5
:10090000BB68DA6A1F4B1B68DB6A9A4201D301237A
:100910007B61B0E71B4B1B68DA6A194913469B00E1
:1009200013449B000B441B68012B01D901237B61FD
:10093000154B1B68002B09D1FFF720FD06E0124B79
:100940001B685A1C104B1A60FFF718FD0F4B1B68F1
:10095000002B01D001237B617B6918461837BD4607
:1009600080BD00BF08010010EC000010A0000010C6
:10097000A40000100001001004000010F00000109E
:100980001400001010000010F8000010FC0000100F
:1009900080B582B000AF354B1B68002B03D0344BC1
:1009A00001221A605EE0324B00221A60314B1B6854
:1009B0001A68304B1B681B6B9A4208D82D4B1A687B
:1009C0002C4B1B68343310461946FFF7CBFC294BE0
:1009D0001B681B6B18462849142200F0C7FD03460C
:1009E000002B09D0234B1A68224B1B683433104666
:1009F0001946FFF7B7FC0CE00BE0204B1B68002BFF
:100A000002D100F063FCFEE71C4B1B685A1E1B4B17
:100A10001A601A4B1A681A4913469B0013449B002C
:100A20000B441B68002BE8D0144B1A6813469B003C
:100A300013449B00124A13447B607B685B685A68CE
:100A40007B685A607B685A687B6808339A4204D195
:100A50007B685B685A687B685A607B685B68DA68A9
:100A6000044B1A600837BD4680BD00BF0801001066
:100A7000FC0000101000001080160000F0000010B4
:100A80001400001080B582B000AF786000F08AF8E2
:100A9000FFF76EFCFAE700BF80B586B000AFF860E4
:100AA000B9607A603B6000237B6112E0BA687B69C1
:100AB00013441A78F9687B690B4430331A71BA68A9
:100AC0007B6913441B78002B00D105E07B6901335F
:100AD0007B617B690B2BE9D9FB68002283F83F20FF
:100AE0007B68042B01D904237B60FB687A68DA6297
:100AF000FB687A681A64FB680433184600F062FAEF
:100B0000FB681833184600F05DFAFB68FA681A6152
:100B10007B68C3F10502FB689A61FB68FA685A6258
:100B20001837BD4680BD00BF80B582B000AF00233E
:100B30007B600CE07A6813469B0013449B00114ACB
:100B40001344184600F01EFA7B6801337B607B6813
:100B5000042BEFD90C4800F015FA0C4800F012FAFB
:100B60000B4800F00FFA0B4800F00CFA0A4800F0AE
:100B700009FA0A4B044A1A60094B044A1A600837FA
:100B8000BD4680BD14000010780000108C000010DD
:100B9000A8000010BC000010D4000010A00000103D
:100BA000A400001080B582B000AF28E0FFF79CFDE4
:100BB000164B1B68002B14BF00230123DBB27B60A4
:100BC000FFF7A0FD7B68002B19D100F057FB0F4BFE
:100BD000DB68DB683B603B680433184600F05AFA78
:100BE0000B4B1B685A1E0A4B1A600A4B1B685A1E95
:100BF000084B1A6000F052FB386800F075F8054B9E
:100C00001B68002BD2D10837BD4680BDBC00001048
:100C1000E8000010D000001080B582B000AF78600E
:100C2000134B1B687A685A60124B1B687A689A42A9
:100C300009D2114B1A680E4B1B6804331046194633
:100C400000F0F0F910E00D4B1A68094B1B680433F3
:100C50001046194600F0E6F9094B1B687A689A427B
:100C600002D2074B7A681A600837BD4680BD00BFC4
:100C700010000010EC000010A4000010A0000010F4
:100C80000400001080B584B000AF03463960FB80DB
:100C9000442000F079FBF860FB68002B1FD03B6814
:100CA000002B06D1FB889B00184600F06DFB034625
:100CB00000E03B68FA681363FB681B6B002B05D1EF
:100CC000F86800F0F3FB0023FB6008E0FB681A6B98
:100CD000FB889B001046A5211A4600F07BFCFB68B0
:100CE00018461037BD4680BD80B582B000AF786031
:100CF0007B681B6B184600F0D9FB786800F0D6FBC8
:100D00000837BD4680BD00BF80B483B000AF0E4B36
:100D10001B681B68002B01D1012300E00023002B7E
:100D200004D00A4B4FF0FF321A6008E0064B1B68F4
:100D3000DB68DB687B607B685A68044B1A600C37A1
:100D4000BD465DF8047B7047A00000100400001051
:100D500080B582B000AF114B7B60114B3B6007E068
:100D60003B681A1D3A607A68111D796012681A6032
:100D70003A680C4B9A42F3D30B480C494FF00002EF
:100D80008842B8BF40F8042BFFF6FAAFFFF79EF990
:100D9000FFF784FA0837BD4680BD00BF94160000F7
:100DA0000000001010000010100000102829001092
:100DB00080B400AF00BFBD465DF8047B704700BF44
:100DC00080B487B000AF13460246FA710A46BA7182
:100DD0007B71BB797B61FB795B003B61184BFB60EE
:100DE0007B690F2B05D97B69103B7B613B69013324
:100DF0003B613B699B00FA6813443A699200F968C9
:100E00000A4411687A695200032000FA02F2D243C0
:100E10000A401A603B699B00FA6813443A699200E1
:100E2000F9680A44116878797A69520000FA02F286
:100E30000A431A601C37BD465DF8047B704700BF4B
:100E400000C0024080B487B000AF13460246FA717A
:100E50000A46BA717B71BB797B61FB795B003B61B0
:100E6000184BFB607B690F2B05D97B69103B7B61BD
:100E70003B6901333B613B699B00FA6813443A6963
:100E80009200F9680A4411687A695200032000FA56
:100E900002F2D2430A401A603B699B00FA6813448D
:100EA0003A699200F9680A44116878797A695200BF
:100EB00000FA02F20A431A601C37BD465DF8047B53
:100EC000704700BF40C0024080B485B000AF1346F9
:100ED0000246FA710A46BA717B71154BFB607B7949
:100EE000012B0FD1FB799B00FA681344FA79920029
:100EF000F9680A441168BA79012000FA02F20A433B
:100F00001A600FE0FB799B00FA681344FA799200AB
:100F1000F9680A441168BA79012000FA02F2D24352
:100F20000A401A601437BD465DF8047B704700BF65
:100F300068C0024080B582B000AF78607B681978E5
:100F40007B685A787B689B78084611461A46FFF7FB
:100F500037FF7B6819787B685A787B68DB780846AE
:100F600011461A46FFF76EFF7B6819787B685A783E
:100F70007B681B79084611461A46FFF7A5FF08371C
:100F8000BD4680BD80B483B000AF78607B6803F15C
:100F900008027B685A607B684FF0FF329A607B687A
:100FA00003F108027B68DA607B6803F108027B6862
:100FB0001A617B6800221A600C37BD465DF8047B1D
:100FC000704700BF80B483B000AF78607B680022B8
:100FD0001A610C37BD465DF8047B704780B485B05C
:100FE00000AF786039607B685B68FB603B68FA68DB
:100FF0005A60FB689A683B689A60FB689B683A682D
:101000005A60FB683A689A603B687A681A617B6844
:101010001B685A1C7B681A601437BD465DF8047B58
:10102000704700BF80B485B000AF786039603B681E
:101030001B68BB60BB68B3F1FF3F03D17B681B69D2
:10104000FB600CE07B680833FB6002E0FB685B68D8
:10105000FB60FB685B681A68BB689A42F6D9FB685C
:101060005A683B685A603B685B683A689A603B68BC
:10107000FA689A60FB683A685A603B687A681A6155
:101080007B681B685A1C7B681A601437BD465DF884
:10109000047B704780B485B000AF78607B681B69C3
:1010A000FB607B685B687A6892689A607B689B6883
:1010B0007A6852685A60FB685A687B689A4203D122
:1010C0007B689A68FB685A607B6800221A61FB683B
:1010D0001B685A1EFB681A60FB681B6818461437A9
:1010E000BD465DF8047B704780B485B000AFF86002
:1010F000B9607A60FB68043BFB60FB684FF080726C
:101100001A60FB68043BFB60BA68FB681A60FB6806
:10111000043BFB60094AFB681A60FB68143BFB60F8
:101120007A68FB681A60FB68203BFB60FB68184626
:101130001437BD465DF8047B704700BF41110000C5
:1011400080B500AF054B1B68B3F1FF3F02D000F044
:10115000BDF8FEE700F0BAF8FEE700BF0800001097
:10116000074B19680868B0E8F00F80F30988BFF3EF
:101170006F8F4FF0000080F311884EF00D0E704716
:101180001000001005480068006880F3088862B607
:10119000BFF34F8FBFF36F8F00DF00BF08ED00E09C
:1011A00080B584B000AF284BFB60FB681B78DBB2D6
:1011B000BB60FB68FF221A70FB681B78DBB2FB7117
:1011C000FB79DBB203F02803DAB2204B1A70204B14
:1011D00007221A6009E01E4B1B685A1E1C4B1A603E
:1011E000FB79DBB25B00DBB2FB71FB79DBB2DBB21C
:1011F0005BB2002BEFDB164B1B681A02144B1A6014
:10120000134B1B6803F4E062114B1A60BB68DAB23F
:10121000FB681A700F4B0F4A126842F478021A608A
:101220000C4B0C4A126842F078421A6000F092F8B7
:10123000094B00221A60FFF7A5FFFFF781FF00238B
:1012400018461037BD4680BD00E400E00C010010D8
:101250001001001020ED00E00800001080B400AF85
:10126000054B4FF080521A60BFF34F8FBFF36F8F63
:10127000BD465DF8047B704704ED00E080B500AF2B
:1012800000F024F8044B1B685A1C034B1A60BFF390
:101290004F8FBFF36F8F80BD0800001080B500AF87
:1012A000094B1B68002B02D100F010F8FEE7064B3B
:1012B0001B685A1E044B1A60034B1B68002B02D19B
:1012C000002000F00DF880BD08000010EFF3118041
:1012D0004FF0280181F3118870470023184600BFA2
:1012E00080F31188704700BFEFF30980BFF36F8F61
:1012F0000D4B1A6820E9F00F10602DE908404FF0FF
:10130000280080F31188FFF743FB4FF0000080F3C3
:101310001188BDE8084019680868B0E8F00F80F34C
:101320000988BFF36F8F70471000001080B500AFC1
:10133000FFF7CCFFFFF76CFA0346002B03D0044BFA
:101340004FF080521A600020FFF7CAFF80BD00BF37
:1013500004ED00E080B400AF074B084A1168084A6A
:10136000A2FB01029209013A1A60064B07221A6099
:10137000BD465DF8047B704714E000E000000010FB
:10138000D34D621010E000E080B588B000AF786007
:1013900000237B61FFF7A8F9404B1B68002B04D1A9
:1013A00000F0BCF83D4B01221A607B68002B0DD089
:1013B00008237A6813447B607B6803F00703002BE3
:1013C00004D07B6823F0070308337B607B68002B25
:1013D00057D07A6842F2F7739A4252D8304BBB61C9
:1013E0002F4B1B68FB6104E0FB69BB61FB691B6859
:1013F000FB61FB695A687B689A4203D2FB691B68F0
:10140000002BF1D1FA69274B9A423AD0BB691A688E
:10141000082313447B61FB691A68BB691A60FB6986
:101420005A687B68D21A08235B009A4222D9FA696B
:101430007B681344FB60FB695A687B68D21AFB68BF
:101440005A60FB697A685A60FB685B68BB60144B42
:101450003B6102E03B691B683B613B691B685A6862
:10146000BB689A42F6D33B691A68FB681A603B690D
:10147000FA681A600C4B1A68FB695B68D21A0A4B4F
:101480001A60FFF73FF97B69002B01D1FEF766FF79
:101490007B6918462037BD4680BD00BF2429001057
:1014A000142900101C2900100C00001080B586B013
:1014B00000AF78607B683B617B68002B27D00823F6
:1014C0005B423A6913443B613B69FB60FFF70CF9EF
:1014D000FB685B68BB600F4B7B6102E07B691B684C
:1014E0007B617B691B685A68BB689A42F6D37B694B
:1014F0001A68FB681A607B69FA681A60FB685A68A8
:10150000054B1B681A44044B1A60FFF7FBF81837A9
:10151000BD4680BD142900100C00001080B483B0BB
:1015200000AF0F4B23F007037B600E4B7A681A6005
:101530000C4B00225A600C4B42F2F8725A600A4B74
:1015400000221A607B683B603B6842F2F8725A6086
:101550003B68054A1A600C37BD465DF8047B70474E
:101560001C010010142900101C290010032A70B45B
:1015700028D940EA01039B0713D005780C78A542CF
:1015800024D1013A002305E010F8015F11F8014F62
:10159000A5421BD1934203F10103F5D1002070BC99
:1015A00070470C46034625681E682146AE42184621
:1015B00004F1040403F1040304D1043A032A184695
:1015C0002146F0D8002AD8D11046E8E7281B70BC85
:1015D000704700BFF0B4840743D0541E002A3ED0A9
:1015E000CDB2034603E0621E002C38D0144603F847
:1015F000015B9A07F7D1032C2AD9CDB245EA05251C
:101600000F2C45EA054515D9A4F110073F0903F150
:10161000100606EB07161A46156055609560D560F2
:101620001032B242F8D104F00F040137032C03EB5F
:1016300007130DD91E462246043A032A46F8045BD6
:10164000FAD8221F22F003020432134404F00304E8
:101650002CB1C9B21C4403F8011BA342FBD1F0BC5E
:10166000704714460346C6E75461736B203100008F
:101670005461736B2032000049444C450000000067
:10168000A5A5A5A5A5A5A5A5A5A5A5A5A5A5A5A50A
:04169000A5A5A5A5C2
:1016940000E1F505FFFFFFFFAAAAAAAAF8270000A8
:00000001FF
